:100000000EC028C027C026C0C2C424C023C022C03E
:1000100021C020C006C51EC01DC01CC01BC01124AD
:100020001FBECFE5D2E0DEBFCDBF10E0A0E6B0E05E
:10003000ECE3F6E102C005900D92A83AB107D9F7BA
:1000400021E0A8EAB0E001C01D92A33BB207E1F7AE
:1000500077D5F2CAD5CFF89482E08ABD83BF94E603
:1000600099BD12BE99B7906199BF7894E4EDF0E024
:100070008083118287B387BB08953FB7F89480913E
:10008000AE009091AF00A091B000B091B1002FB53B
:1000900008B602FE05C02F3F19F00196A11DB11D43
:1000A0003FBFBA2FA92F982F8827BC01CD01620F1F
:1000B000711D811D911D42E0660F771F881F991FDA
:1000C0004A95D1F708952FB7F8946091AA007091DE
:1000D000AB008091AC009091AD002FBF08952091AE
:1000E0009B0030919C002817390731F12091910035
:1000F000309192002817390711F120918700309133
:10010000880028173907F1F020917D0030917E009A
:1001100028173907D1F020917300309174008217AD
:100120009307B1F02091690030916A00821793071C
:1001300091F090E080E0089589E990E008958FE8DB
:1001400090E0089585E890E008958BE790E00895A9
:1001500081E790E0089587E690E008950F931F935C
:100160008091C5008823E1F188DF0091B2001091F1
:10017000B3002091B4003091B500AB01BC01401B2D
:10018000510B620B730B4B3151056105710540F149
:10019000D901C8014B96A11DB11D8093B200909367
:1001A000B300A093B400B093B5009091A8009F3F16
:1001B000D1F488B3867E88BB1092A8008091B600E7
:1001C000882371F01092B6008091630080936000E4
:1001D000809164008093610080916500809362004B
:1001E0001F910F91089548B38091600030E09813FB
:1001F00001C030E18091610020E0981301C028E047
:1002000081E050916200591380E0842B832B822B74
:1002100088BB8091A8008F5F8093A800E1CF282F32
:100220006DEF01DA982F822F63E0FDD9253568F450
:100230008095809363009195909364008FEF8093F5
:10024000650081E08093B60008952A3A50F49250F8
:100250009095909363009FEF909364008F5F8095DB
:10026000EECF2FEF209363008E5F80958093640024
:100270009350909590936500E4CFDC01E3E6F0E0C5
:100280008C918095808311968C91119780958183B4
:1002900012968C918095828381E08093B6000895B8
:1002A0008F929F92AF92BF92CF92DF92EF92FF9286
:1002B0006B017C01E2DE4B015C0184E0C81AD108CD
:1002C000E108F108C80CD91CEA1CFB1CC814D904AD
:1002D000EA04FB0430F4D1DE86169706A806B906B8
:1002E000D0F3CBDE6C157D058E059F05D0F3FF9016
:1002F000EF90DF90CF90BF90AF909F908F90089538
:100300002AB52F7D2ABD8530910520F0BC0190E0F3
:1003100080E0C6CF08958AB580628ABD69E773E040
:1003200080E090E0BDCFCF92DF92EF92FF92CF932B
:10033000DF93EC01072E000C880B990B59D86B0149
:100340007C0120E030E040E45FE302D920E030E0CF
:1003500048E452E4B2D719D8C617D707B4F020E062
:1003600030E040EA5FE3C701B601F2D820E030E0B8
:1003700048E452E4A2D720E030E040E85FE335D71C
:1003800004D821E06C177D070CF420E0822F90E068
:10039000DF91CF91FF90EF90DF90CF900895AF92D3
:1003A000BF92CF92DF92EF92FF920F931F93CF9362
:1003B000DF93FC01208131814091AF015091B00168
:1003C00001E010E0241735070CF03FC0A901440FED
:1003D000551FE091AD01F091AE01E40FF51FA08033
:1003E000B18089010095109501701127CCE9DFEFEC
:1003F00020FF02C0C4E6D0E06B017C01BE0167585B
:100400007C4FC50190DF21E030E0892BA9F4BE01CB
:100410006E50794FC50187DF22E030E0892B61F40F
:10042000BE016559754FC5017EDF23E030E0892BA1
:1004300019F40FEF1FEF09C0F60180819181019639
:100440008217930774F491838083C801DF91CF9161
:100450001F910F91FF90EF90DF90CF90BF90AF90E2
:10046000089511821082F701808191810196EBCF6E
:100470002F923F924F925F926F927F928F929F92B4
:10048000AF92BF92CF92DF92EF92FF920F931F93A2
:10049000CF93DF9300D000D000D0CDB7DEB788ED8A
:1004A00090E09093AE018093AD018091D50090E0F3
:1004B0009093B0018093AF018091A20190E090935E
:1004C000B2018093B1018091D4008530C1F41C82C7
:1004D0001B8281E090E09A8389838091D5008D30E2
:1004E00080F48091AF019091B0019E838D83069737
:1004F0000CF08CC082E08093D4001092D50080E094
:100500006CC0BE016D5F7F4FCE01019648DF892B25
:1005100041F7BE016D5F7F4FCE01019640DF01972D
:1005200001F7BE016D5F7F4FCE01019638DF8C0170
:10053000892BB9F6C12CD12C76012091D500898167
:100540009A812817190649F144F1BE016D5F7F4F6A
:10055000CE01019624DF5C01BE016D5F7F4FCE01AD
:1005600001961DDFE1E0AE16B10461F4892B09F0BC
:10057000B8CFCC0CDD1CEE1CFF1C6894C0F80F5FDC
:100580001F4FDBCFAB2809F0ACCF019709F0A9CF03
:10059000CC0CDD1CEE1CFF1CF2CF1093AC010093C1
:1005A000AB01C092A701D092A801E092A901F092FC
:1005B000AA0181E090E09093A4018093A30180912F
:1005C000A7019091A8019093CC008093CB0082E08A
:1005D0008093D4001092D50081E026960FB6F8944F
:1005E000DEBF0FBECDBFDF91CF911F910F91FF9066
:1005F000EF90DF90CF90BF90AF909F908F907F90C3
:100600006F905F904F903F902F9008950091AD01B3
:100610001091AE010E5F1F4F23E0222E312C35ECDE
:10062000C32E3DE9D32E3CE1E32E31E8F32EF80151
:1006300064817581A080B18090E080E0D7D62B01E5
:100640003C01B50190E080E0D1D64B015C012DEC7E
:100650003CEC4CE45FE37CD79B01AC01C301B201ED
:1006600028D687FD15C02DEC3CEC4CE45FE3C301BC
:10067000B2016ED79B01AC01C501B4011AD6AA2400
:10068000A394B12C87FF06C082E0A82EB12C02C033
:10069000B12CA12C23E931E040E051E0C701B601C3
:1006A0004CD56501BB0CEE08FF08C626D726E82608
:1006B000F926FFEF2F1A3F0A0E5F1F4F8D819E8193
:1006C0008215930509F0B3CFC092A701D092A8017B
:1006D000E092A901F092AA0180E290E09093AC012F
:1006E0008093AB018FEF9FEF66CF8F929F92AF9277
:1006F000BF92CF92DF92EF92FF920F931F93CF930F
:10070000E2DC6B017C01DFDC6C197D098E099F093D
:10071000603177428105910558F5D5DC0091C10023
:100720001091C2002091C3003091C4004B015C01C4
:10073000801A910AA20AB30A950184010A301105B0
:100740002105310598F06093C1007093C200809339
:10075000C3009093C4008091C000C1E0C80FC09353
:10076000C0005DDDCF3F11F41092C000F7DCCBCFAD
:10077000CF911F910F91FF90EF90DF90CF90BF909E
:10078000AF909F908F9074CE8F929F92AF92BF92B6
:10079000CF92DF92EF92FF92CF93DF934B015C01F8
:1007A00089B78F7E89BFB99AC19881E08ABD89E0F7
:1007B00083BF8EED89BD8AE488BDADDD89E793E016
:1007C0009FDDA9DDC0E1D0E0C12C90E8D92EE12C5D
:1007D000F12CD501C4018C219D21AE21BF21892B93
:1007E0008A2B8B2BC1F089E793E08ADD94DDF694A8
:1007F000E794D794C794219761F78AB58F7D8ABD16
:10080000DF91CF91FF90EF90DF90CF90BF90AF90AE
:100810009F908F9008957FDD89E793E071DDE7CFAA
:100820004F925F926F927F928F929F92AF92BF9200
:10083000CF92DF92EF92FF920F931F93CF93DF93AC
:1008400042DC6B017C01812C912C5401939400E0DB
:1008500011E0D1E038DC6C197D098E099F09603107
:10086000774281059105E8F52EDC4090C10050905B
:10087000C2006090C3007090C4009B01AC012419B9
:1008800035094609570929013A013DE4431631E08B
:1008900053066104710418F16093C1007093C200A3
:1008A0008093C3009093C400DBD3A50194015ED470
:1008B000C62FD6D398012C1B3109032E000C440BF4
:1008C000550B54D4C095C0936300862F80958093B8
:1008D0006400C61BC095C0936500D093B6003EDC93
:1008E000B9CFDF91CF911F910F91FF90EF90DF90E3
:1008F000CF90BF90AF909F908F907F906F905F90C0
:100900004F90B6CDFF920F931F93CF93DF93009735
:1009100011F48FE890E09093CF008093CE00FC011B
:10092000228133813093BA002093B900218181E084
:1009300090E0AC0102C0440F551F2A95E2F7809168
:10094000B800842B8093B80007EB10E0D0E0C0E043
:10095000F801F1908F01CE01DAD3F81619F06F2D5E
:10096000CE01DDD32196C430D10591F78091CE0020
:100970009091CF00049681DC1092CD0081E08093AD
:10098000A300DF91CF911F910F91FF909CCB1F92FD
:100990000F920FB60F9211242F933F938F939F9333
:1009A000AF93BF938091AA009091AB00A091AC004F
:1009B000B091AD003091A90023E0230F2D3768F1ED
:1009C00026E8230F0296A11DB11D2093A900809354
:1009D000AA009093AB00A093AC00B093AD008091BF
:1009E000AE009091AF00A091B000B091B10001961F
:1009F000A11DB11D8093AE009093AF00A093B000F5
:100A0000B093B100BF91AF919F918F913F912F9182
:100A10000F900FBE0F901F9018950196A11DB11D4C
:100A2000D4CF1F920F920FB60F9211242F933F93A2
:100A30008F939F93EF93FF9386B384702091D6009A
:100A40003091D7002F5F3F4F3093D7002093D600CF
:100A50009091D500953618F096E09093D40090913F
:100A6000D400943009F45DC078F49230B1F0933042
:100A7000E9F1FF91EF919F918F913F912F910F900D
:100A80000FBE0F901F901895953009F456C0963000
:100A900081F781E08093A2014EC08111EACF80915D
:100AA000D6009091D7008436910528F41092D70093
:100AB0001092D600DECF1092A2011092D500E091E4
:100AC000D50081E08E0F8093D500F0E08091D600B4
:100AD0009091D700EE0FFF1FE852FF4F9183808364
:100AE0001092D7001092D60083E018C0882309F234
:100AF000E091D50081E08E0F8093D500F0E08091E9
:100B0000D6009091D700EE0FFF1FE852FF4F918360
:100B100080831092D7001092D60084E08093D40096
:100B2000A8CF882361F28091D6009091D7008536B6
:100B3000910508F49ECF85E0F1CF81119ACFB6CF11
:100B4000CF93DF9300D01F92CDB7DEB781B781BFBF
:100B500080B7806880BF8CB580648CBD1FEF1DBDE1
:100B600080B7807F876080BF789489B7846089BFB1
:100B700083B7887F83BF8AB581608ABD8AB58D7F40
:100B80008ABD83B7877F83BF83B7836083BF86B106
:100B9000876886B9379A5FDA87B3896187BB81E056
:100BA0008093C50010936300109364001093650058
:100BB0008093B60062DA6093B2007093B3008093C2
:100BC000B4009093B50087B387BBC59A90E080E0EE
:100BD0009ED2182F8093B70081E090E098D2809346
:100BE000B80082E090E093D28093B90083E090E077
:100BF0008ED28093BA001B3761F58091B900909135
:100C0000BA006DDA7FDE8091B8008F33C1F5B12C68
:100C1000AA24A3948091BB00811131C0B5992FC043
:100C2000B3942BDA8B0182E3C82ED12CE12CF12C6A
:100C300024DA601B710B683E7340D8F0C114D104F4
:100C4000E104F10471F44AE0B412E4CFA092BB00D5
:100C5000E1CF8BE78093B7001092B8008FE890E067
:100C6000D1CF21E0C21AD108E108F10808511C4F88
:100C7000DFCFC114D104E104F104D1F6E4CF8091B7
:100C8000BB0001E0882309F46EC0B59958C01BDA97
:100C90006B017C0110916600153030F58091BC002D
:100CA0009091BD00A091BE00B091BF0046015701D8
:100CB000881A990AAA0ABB0AD501C401883C910581
:100CC000A105B10588F063EC72E480E090E05CDDA2
:100CD000C2D91F5F10936600C092BC00D092BD00C5
:100CE000E092BE00F092BF00EED90091C1001091D9
:100CF000C2002091C3003091C4004B015C01801AF6
:100D0000910AA20AB30A950184010E311105210549
:100D1000310598F06093C1007093C2008093C300C6
:100D20009093C4008091C00011E0180F1093C00090
:100D300076DA1F3F11F41092C00010DAA6CF10929D
:100D4000660096DB882381F28091CB009091CC00E5
:100D5000833C22E4920711F4C8DCC6CF833C96435F
:100D600019F65EDDC1CFB599E2C08091CE009091B9
:100D7000CF00892BB1F1A7D92091CA00253088F581
:100D8000C090C600D090C700E090C800F090C900A5
:100D90004B015C018C189D08AE08BF087501640109
:100DA00038ECC316D104E104F104D8F06093C60016
:100DB0007093C7008093C8009093C90081E0820FB0
:100DC0008093CA0088B3867E88BBE091CE00F09104
:100DD000CF006281738190E080E0D6DC3CD9009343
:100DE000C50071D9C090D000D090D100E090D20061
:100DF000F090D300AB01BC014C195D096E097F096D
:100E00004F3051056105710508F48FC0D701C60147
:100E10000F96A11DB11D8093D0009093D100A09397
:100E2000D200B093D300C090CE00D090CF00F60196
:100E3000E480F12C1091CD00612F70E090E080E013
:100E4000D7D24B015C01F601678170E06E197F0912
:100E5000072E000C880B990BCBD220E030E04FE737
:100E600053E42BD2A501940173D32B013C01B701AC
:100E7000FF0C880B990BBCD29B01AC01C301B201E2
:100E8000B4D188D26983F601E580F12C608570E0E9
:100E90006E197F09072E000C880B990BA9D220E050
:100EA00030E04FE753E409D2A501940151D32B015F
:100EB0003C01B701FF0C880B990B9AD29B01AC0146
:100EC000C301B20192D166D26A83F601E680F12CA9
:100ED000618570E06E197F09072E000C880B990B55
:100EE00087D220E030E04FE753E4E7D1A501940139
:100EF0002FD34B015C01B701FF0C880B990B78D203
:100F00009B01AC01C501B40170D144D26B83CE0109
:100F10000196B3D98091A300180F1093CD00115002
:100F20001E3F18F081958093A30018D91CCF109212
:100F3000CA009EDA882309F454CF8091CB009091A7
:100F4000CC00833C42E4940711F4CFDB4ACF833CCE
:100F500056E3950711F464DC44CFE091CE00F091A4
:100F6000CF00228133818217930709F43ACF209171
:100F70009B0030919C008217930721F120919100F2
:100F80003091920082179307E9F020918700309109
:100F9000880082179307B1F020917D0030917E0088
:100FA0008217930779F020917300309174008217B3
:100FB000930741F02091690030916A0082179307EE
:100FC00009F00FCF8CD89EDC0CCF8F929F92AF92FE
:100FD000BF92CF92DF92EF92FF92CF93DF93EC011B
:100FE000688179818A819B816115710581059105EF
:100FF00021F464E279ED8BE597E02DE133EF41E0F8
:1010000050E0B4D049015A0127EA31E440E050E011
:1010100094D06B017C012CEE34EF4FEF5FEFC501F4
:10102000B4018BD0C60ED71EE81EF91EF7FE06C00F
:1010300081E0C81AD108E10880E8F80AC882D9829C
:10104000EA82FB82C701B6019F77DF91CF91FF90C3
:10105000EF90DF90CF90BF90AF909F908F900895CA
:101060008F929F92AF92BF92CF92DF92EF92FF92B8
:101070006091A4007091A5008091A6009091A700B6
:10108000611571058105910521F464E279ED8BE527
:1010900097E02DE133EF41E050E068D049015A017B
:1010A00027EA31E440E050E048D06B017C012CEEAF
:1010B00034EF4FEF5FEFC501B4013FD0C60ED71E2E
:1010C000E81EF91EF7FE06C081E0C81AD108E10843
:1010D00080E8F80AC092A400D092A500E092A60091
:1010E000F092A700C701B6019F77FF90EF90DF90C5
:1010F000CF90BF90AF909F908F9008956093A40081
:101100007093A5008093A6009093A7000895E1999D
:10111000FECF9FBB8EBBE09A99278DB30895262FF3
:10112000E199FECF1CBA9FBB8EBB2DBB0FB6F894C6
:10113000E29AE19A0FBE01960895EE27FF27AA27AB
:10114000BB2708C0A20FB31FE41FF51F220F331FD8
:10115000441F551F969587957795679598F370402E
:10116000A9F7009799F7BD01CF010895052E97FBC8
:1011700016F400940FD057FD05D014D007FC02D010
:1011800046F408C050954095309521953F4F4F4FFC
:101190005F4F089590958095709561957F4F8F4F23
:1011A0009F4F0895A1E21A2EAA1BBB1BFD010DC083
:1011B000AA1FBB1FEE1FFF1FA217B307E407F50707
:1011C00020F0A21BB30BE40BF50B661F771F881FE3
:1011D000991F1A9469F760957095809590959B0179
:1011E000AC01BD01CF0108955058BB27AA270ED0EE
:1011F00075C166D130F06BD120F031F49F3F11F40E
:101200001EF45BC10EF4E095E7FB51C1E92F77D1E5
:1012100080F3BA17620773078407950718F071F413
:101220009EF58FC10EF4E0950B2EBA2FA02D0B0169
:10123000B90190010C01CA01A0011124FF27591B1B
:1012400099F0593F50F4503E68F11A16F040A22F21
:10125000232F342F4427585FF3CF46953795279592
:10126000A795F0405395C9F77EF41F16BA0B620B91
:10127000730B840BBAF09150A1F0FF0FBB1F661FD8
:10128000771F881FC2F70EC0BA0F621F731F841F1B
:1012900048F4879577956795B795F7959E3F08F041
:1012A000B3CF9395880F08F09927EE0F9795879500
:1012B0000895D9D008F481E008950CD00FC107D16A
:1012C00040F0FED030F021F45F3F19F0F0C0511132
:1012D00039C1F3C014D198F39923C9F35523B1F35D
:1012E000951B550BBB27AA2762177307840738F095
:1012F0009F5F5F4F220F331F441FAA1FA9F333D0F4
:101300000E2E3AF0E0E830D091505040E695001CA7
:10131000CAF729D0FE2F27D0660F771F881FBB1F63
:10132000261737074807AB07B0E809F0BB0B802D3D
:10133000BF01FF2793585F4F2AF09E3F510568F089
:10134000B6C000C15F3FECF3983EDCF3869577951D
:101350006795B795F7959F5FC9F7880F911D96958B
:10136000879597F90895E1E0660F771F881FBB1FE7
:10137000621773078407BA0720F0621B730B840B94
:10138000BA0BEE1F88F7E095089504D06894B11168
:10139000D9C00895BCD088F09F5790F0B92F9927F5
:1013A000B751A0F0D1F0660F771F881F991F1AF070
:1013B000BA95C9F712C0B13081F0C3D0B1E0089539
:1013C000C0C0672F782F8827B85F39F0B93FCCF3BA
:1013D000869577956795B395D9F73EF49095809566
:1013E000709561957F4F8F4F9F4F0895E89409C086
:1013F00097FB3EF490958095709561957F4F8F4F48
:101400009F4F9923A9F0F92F96E9BB279395F6955D
:10141000879577956795B795F111F8CFFAF4BB0FDB
:1014200011F460FF1BC06F5F7F4F8F4F9F4F16C03F
:10143000882311F096E911C0772321F09EE8872FC9
:10144000762F05C0662371F096E8862F70E060E085
:101450002AF09A95660F771F881FDAF7880F9695FE
:10146000879597F90895990F0008550FAA0BE0E8A2
:10147000FEEF16161706E807F907C0F01216130656
:10148000E407F50798F0621B730B840B950B39F496
:101490000A2661F0232B242B252B21F408950A26FC
:1014A00009F4A140A6958FEF811D811D089597F93C
:1014B0009F6780E870E060E008959FEF80EC0895FA
:1014C00000240A9416161706180609060895002423
:1014D0000A9412161306140605060895092E03949D
:1014E000000C11F4882352F0BB0F40F4BF2B11F411
:1014F00060FF04C06F5F7F4F8F4F9F4F089557FD70
:101500009058440F551F59F05F3F71F04795880F71
:1015100097FB991F61F09F3F79F087950895121608
:1015200013061406551FF2CF4695F1DF08C01616B4
:1015300017061806991FF1CF869571056105089465
:101540000895E894BB2766277727CB0197F908957C
:101550000AD0C4CFB5DF28F0BADF18F0952309F020
:10156000A6CFABCFEFCFCBDFA8F39923D9F3552389
:10157000C9F3950F50E0551FAA27EE27FF27BB2779
:1015800000240894679520F4E20FF31FB41F0A1E8D
:10159000220F331F441FAA1F6695A9F7779530F4D1
:1015A000F30FB41F0A1E121E08F46395330F441F75
:1015B000AA1F221F769599F7879520F4B40F0A1E6B
:1015C000121E631F440FAA1F221F331F8695A9F7FF
:1015D000862F712D602D11249F5750408AF0E1F025
:1015E00088234AF0EE0FFF1FBB1F661F771F881F5F
:1015F00091505040A9F79E3F510570F058CFA2CFAF
:101600005F3FECF3983EDCF3869577956795B79549
:10161000F795E7959F5FC1F7FE2B880F911D969573
:10162000879597F90895002480FD060E660F11F046
:0C1630008695D1F7802D0895F894FFCF27
:10163C00FFFFFFFFFFFF0550051C7032000FFF007E
:10164C00964204C0B60000280000FF430394C70074
:10165C000F3C0064824702726700230000AA005905
:10166C00011059321900F0460052003D522800007A
:08167C00FF0000010100000065
:00000001FF
