:100000000EC028C027C026C063C424C023C022C09D
:1000100021C020C0A7C41EC01DC01CC01BC011240D
:100020001FBECFE5D2E0DEBFCDBF10E0A0E6B0E05E
:10003000EEE5F5E102C005900D92A83AB107D9F7B7
:1000400021E0A8EAB0E001C01D92A33BB207E1F7AE
:1000500018D583CAD5CFF89482E08ABD83BF94E6D1
:1000600099BD12BE99B7906199BF7894E4EDF0E024
:100070008083118287B387BB08953FB7F89480913E
:10008000AE009091AF00A091B000B091B1002FB53B
:1000900008B602FE05C02F3F19F00196A11DB11D43
:1000A0003FBFBA2FA92F982F8827BC01CD01620F1F
:1000B000711D811D911D42E0660F771F881F991FDA
:1000C0004A95D1F708952FB7F8946091AA007091DE
:1000D000AB008091AC009091AD002FBF08950F93BD
:1000E0001F938091C5008823E1F1C7DF0091B20022
:1000F0001091B3002091B4003091B500AB01BC0168
:10010000401B510B620B730B4B315105610571059F
:1001100040F1D901C8014B96A11DB11D8093B200D9
:100120009093B300A093B400B093B5009091A80051
:100130009F3FD1F488B3867E88BB1092A80080913F
:10014000B600882371F01092B6008091630080930E
:1001500060008091640080936100809165008093CD
:1001600062001F910F91089548B38091600030E0C4
:10017000981301C030E18091610020E0981301C024
:1001800028E081E050916200591380E0842B832B9A
:10019000822B88BB8091A8008F5F8093A800E1CF5D
:1001A000282F6DEFD1D9982F822F63E0CDD9253537
:1001B00068F48095809363009195909364008FEF2D
:1001C0008093650081E08093B60008952A3A50F448
:1001D00092509095909363009FEF909364008F5F8F
:1001E0008095EECF2FEF209363008E5F80958093F4
:1001F00064009350909590936500E4CFDC01E3E6B2
:10020000F0E08C918095808311968C911197809568
:10021000818312968C918095828381E08093B600D1
:100220000895009711F487E690E09093CF008093B3
:10023000CE00FC01228133813093BA002093B900B3
:10024000418121E030E0B90102C0660F771F4A9575
:10025000E2F72091B800262B2093B8000496CEDF59
:100260001092CD0081E08093A3002DCF8F929F92BA
:10027000AF92BF92CF92DF92EF92FF926B017C011F
:10028000FCDE4B015C0184E0C81AD108E108F108EA
:10029000C80CD91CEA1CFB1CC814D904EA04FB04D2
:1002A00030F4EBDE86169706A806B906D0F3E5DE35
:1002B0006C157D058E059F05D0F3FF90EF90DF90C4
:1002C000CF90BF90AF909F908F9008952AB52F7DCB
:1002D0002ABD8530910520F0BC0190E080E0C6CFBA
:1002E00008958AB580628ABD69E773E080E090E096
:1002F000BDCFCF92DF92EF92FF92CF93DF93EC01CD
:10030000072E000C880B990B04D86B017C0120E0B0
:1003100030E040E45FE3ADD820E030E048E452E470
:100320005DD7C4D7C617D707B4F020E030E040EA65
:100330005FE3C701B6019DD820E030E048E452E415
:100340004DD720E030E040E85FE3E0D6AFD721E0D2
:100350006C177D070CF420E0822F90E0DF91CF91A5
:10036000FF90EF90DF90CF900895AF92BF92CF9221
:10037000DF92EF92FF920F931F93CF93DF93FC01D5
:10038000208131814091AF015091B00101E010E036
:10039000241735070CF03FC0A901440F551FE09109
:1003A000AD01F091AE01E40FF51FA080B18089018D
:1003B0000095109501701127CCE9DFEF20FF02C0F6
:1003C000C4E6D0E06B017C01BE0167587C4FC501DB
:1003D00090DF21E030E0892BA9F4BE016E50794F07
:1003E000C50187DF22E030E0892B61F4BE01655949
:1003F000754FC5017EDF23E030E0892B19F40FEF44
:100400001FEF09C0F6018081918101968217930741
:1004100074F491838083C801DF91CF911F910F9174
:10042000FF90EF90DF90CF90BF90AF900895118232
:100430001082F701808191810196EBCF2F923F923C
:100440004F925F926F927F928F929F92AF92BF92E4
:10045000CF92DF92EF92FF920F931F93CF93DF9390
:1004600000D000D000D0CDB7DEB788ED90E09093FB
:10047000AE018093AD018091D50090E09093B001E2
:100480008093AF018091A20190E09093B20180939C
:10049000B1018091D4008530C1F41C821B8281E0BF
:1004A00090E09A8389838091D5008D3080F480918B
:1004B000AF019091B0019E838D8306970CF08CC0A4
:1004C00082E08093D4001092D50080E06CC0BE0121
:1004D0006D5F7F4FCE01019648DF892B41F7BE014A
:1004E0006D5F7F4FCE01019640DF019701F7BE019E
:1004F0006D5F7F4FCE01019638DF8C01892BB9F6F5
:10050000C12CD12C76012091D50089819A812817A0
:10051000190649F144F1BE016D5F7F4FCE0101968E
:1005200024DF5C01BE016D5F7F4FCE0101961DDFB0
:10053000E1E0AE16B10461F4892B09F0B8CFCC0C20
:10054000DD1CEE1CFF1C6894C0F80F5F1F4FDBCF53
:10055000AB2809F0ACCF019709F0A9CFCC0CDD1C7A
:10056000EE1CFF1CF2CF1093AC010093AB01C092C4
:10057000A701D092A801E092A901F092AA0181E01E
:1005800090E09093A4018093A3018091A7019091A2
:10059000A8019093CC008093CB0082E08093D4009C
:1005A0001092D50081E026960FB6F894DEBF0FBEFC
:1005B000CDBFDF91CF911F910F91FF90EF90DF9012
:1005C000CF90BF90AF909F908F907F906F905F90F3
:1005D0004F903F902F9008950091AD011091AE0182
:1005E0000E5F1F4F23E0222E312C35ECC32E3DE948
:1005F000D32E3CE1E32E31E8F32EF80164817581BE
:10060000A080B18090E080E082D62B013C01B50152
:1006100090E080E07CD64B015C012DEC3CEC4CE49E
:100620005FE327D79B01AC01C301B201D3D587FD9E
:1006300015C02DEC3CEC4CE45FE3C301B20119D7CB
:100640009B01AC01C501B401C5D5AA24A394B12C6A
:1006500087FF06C082E0A82EB12C02C0B12CA12CCD
:1006600023E931E040E051E0C701B601F7D465016C
:10067000BB0CEE08FF08C626D726E826F926FFEFB2
:100680002F1A3F0A0E5F1F4F8D819E8182159305A1
:1006900009F0B3CFC092A701D092A801E092A901BE
:1006A000F092AA0180E290E09093AC018093AB01BC
:1006B0008FEF9FEF66CF8F929F92AF92BF92CF92B4
:1006C000DF92EF92FF920F931F93CF93FCDC6B01AD
:1006D0007C01F9DC6C197D098E099F096031774234
:1006E0008105910558F5EFDC0091C1001091C20021
:1006F0002091C3003091C4004B015C01801A910A23
:10070000A20AB30A950184010A30110521053105B9
:1007100098F06093C1007093C2008093C3009093DF
:10072000C4008091C000C1E0C80FC093C00038DD94
:10073000CF3F11F41092C000D2DCCBCFCF911F91EC
:100740000F91FF90EF90DF90CF90BF90AF909F9070
:100750008F9074CE8F929F92AF92BF92CF92DF9282
:10076000EF92FF92CF93DF934B015C0189B78F7EAD
:1007700089BFB99AC19881E08ABD89E083BF8EEDB7
:1007800089BD8AE488BDADDD89E793E09FDDA9DD01
:10079000C0E1D0E0C12C90E8D92EE12CF12CD5019C
:1007A000C4018C219D21AE21BF21892B8A2B8B2B4B
:1007B000C1F089E793E08ADD94DDF694E794D7945D
:1007C000C794219761F78AB58F7D8ABDDF91CF915C
:1007D000FF90EF90DF90CF90BF90AF909F908F9061
:1007E00008957FDD89E793E071DDE7CF4F925F9257
:1007F0006F927F928F929F92AF92BF92CF92DF9231
:10080000EF92FF920F931F93CF93DF935CDC6B010A
:100810007C01812C912C5401939400E011E0D1E0F3
:1008200052DC6C197D098E099F0960317742810580
:100830009105E8F548DC4090C1005090C2006090FE
:10084000C3007090C4009B01AC012419350946090E
:10085000570929013A013DE4431631E0530661048A
:10086000710418F16093C1007093C2008093C300BB
:100870009093C4009CD3A501940109D4C62F97D3AB
:1008800098012C1B3109032E000C440B550BFFD390
:10089000C095C0936300862F809580936400C61B2B
:1008A000C095C0936500D093B60019DCB9CFDF9135
:1008B000CF911F910F91FF90EF90DF90CF90BF905D
:1008C000AF909F908F907F906F905F904F90B6CD3C
:1008D0001F920F920FB60F9211242F933F938F9375
:1008E0009F93AF93BF938091AA009091AB00A0918A
:1008F000AC00B091AD003091A90023E0230F2D375B
:1009000068F126E8230F0296A11DB11D2093A900CE
:100910008093AA009093AB00A093AC00B093AD007D
:100920008091AE009091AF00A091B000B091B10065
:100930000196A11DB11D8093AE009093AF00A093CE
:10094000B000B093B100BF91AF919F918F913F9153
:100950002F910F900FBE0F901F9018950196A11D1B
:10096000B11DD4CF1F920F920FB60F9211242F9367
:100970003F938F939F93EF93FF9386B3847020915F
:10098000D6003091D7002F5F3F4F3093D700209390
:10099000D6009091D500953618F096E09093D4004B
:1009A0009091D400943009F45DC078F49230B1F0A5
:1009B0009330E9F1FF91EF919F918F913F912F91AA
:1009C0000F900FBE0F901F901895953009F456C0E8
:1009D000963081F781E08093A2014EC08111EACF69
:1009E0008091D6009091D7008436910528F410921A
:1009F000D7001092D600DECF1092A2011092D5003F
:100A0000E091D50081E08E0F8093D500F0E08091D9
:100A1000D6009091D700EE0FFF1FE852FF4F918351
:100A200080831092D7001092D60083E018C08823EC
:100A300009F2E091D50081E08E0F8093D500F0E0BF
:100A40008091D6009091D700EE0FFF1FE852FF4F24
:100A5000918380831092D7001092D60084E0809317
:100A6000D400A8CF882361F28091D6009091D7005E
:100A70008536910508F49ECF85E0F1CF81119ACF9C
:100A8000B6CFCF93DF9300D01F92CDB7DEB781B73B
:100A900081BF80B7806880BF8CB580648CBD1FEF3C
:100AA0001DBD80B7807F876080BF789489B78460E0
:100AB00089BF83B7887F83BF8AB581608ABD8AB5C5
:100AC0008D7F8ABD83B7877F83BF83B7836083BFF2
:100AD00086B1876886B9379ABEDA87B3896187BBE2
:100AE00081E08093C500109363001093640010931D
:100AF00065008093B600C1DA6093B2007093B300D2
:100B00008093B4009093B50087B387BBC59A8BE7F9
:100B10008093B7001092B80087E690E082DBB12C9A
:100B2000AA24A3948091BB0081110EC1B59BE5C09E
:100B300001E0B59977C18091CE009091CF00892BCB
:100B4000B1F1C1DA2091CA00253088F5C090C60005
:100B5000D090C700E090C800F090C9004B015C0144
:100B60008C189D08AE08BF087501640138ECC316E7
:100B7000D104E104F104D8F06093C6007093C7007B
:100B80008093C8009093C90081E0820F8093CA00CF
:100B900088B3867E88BBE091CE00F091CF00628161
:100BA000738190E080E0D6DD56DA0093C5008BDAE1
:100BB000C090D000D090D100E090D200F090D3004F
:100BC000AB01BC014C195D096E097F094F3051051D
:100BD0006105710508F48FC0D701C6010F96A11DEC
:100BE000B11D8093D0009093D100A093D200B09318
:100BF000D300C090CE00D090CF00F601E480F12C5D
:100C00001091CD00612F70E090E080E082D34B0125
:100C10005C01F601678170E06E197F09072E000CF8
:100C2000880B990B76D320E030E04FE753E4D6D21F
:100C3000A50194011ED42B013C01B701FF0C880BC8
:100C4000990B67D39B01AC01C301B2015FD233D3CF
:100C50006983F601E580F12C608570E06E197F09EB
:100C6000072E000C880B990B54D320E030E04FE79F
:100C700053E4B4D2A5019401FCD32B013C01B7018C
:100C8000FF0C880B990B45D39B01AC01C301B2014A
:100C90003DD211D36A83F601E680F12C618570E0C4
:100CA0006E197F09072E000C880B990B32D320E0B8
:100CB00030E04FE753E492D2A5019401DAD34B011F
:100CC0005C01B701FF0C880B990B23D39B01AC018E
:100CD000C501B4011BD2EFD26B83CE0101968EDA2F
:100CE0008091A300180F1093CD0011501E3F18F0F3
:100CF00081958093A300F3D91CCFB394BED98B0107
:100D000082E3C82ED12CE12CF12CB7D9601B710BDA
:100D1000683E734098F0C114D104E104F10431F449
:100D20004AE0B412FFCEA092BB00FCCE21E0C21A72
:100D3000D108E108F10808511C4FE7CFC114D104D4
:100D4000E104F10411F7ECCFB59958C0BCD96B019F
:100D50007C0110916600153030F58091BC009091B7
:100D6000BD00A091BE00B091BF0046015701881A96
:100D7000990AAA0ABB0AD501C401883C9105A105BC
:100D8000B10588F063EC72E480E090E0E3DC63D9C5
:100D90001F5F10936600C092BC00D092BD00E0922D
:100DA000BE00F092BF008FD90091C1001091C20027
:100DB0002091C3003091C4004B015C01801A910A5C
:100DC000A20AB30A950184010E31110521053105EE
:100DD00098F06093C1007093C2008093C300909319
:100DE000C4008091C00011E0180F1093C000D8D942
:100DF0001F3F11F41092C00072D9A6CF1092660066
:100E00001DDB882381F28091CB009091CC00833C44
:100E100022E4920711F44FDCC6CF833C964319F6C7
:100E2000E5DCC1CF1092CA0009DB882309F4BFCEEC
:100E30008091CB009091CC00833C42E4940711F464
:100E40003ADCB5CE833C56E3950711F4CFDCAFCE48
:100E5000E091CE00F091CF00228133818217930779
:100E600009F4A5CE20919B0030919C008217930736
:100E700009F440C0209191003091920082179307AD
:100E8000E1F1209187003091880082179307B1F03B
:100E900040917D0050917E008417950779F0409134
:100EA0007300509174008417950741F040916900D8
:100EB00050916A008417950709F079CE821793073D
:100EC000F9F020917D0030917E0082179307D9F0D0
:100ED000209173003091740082179307B9F020912C
:100EE000690030916A008217930799F090E080E0E2
:100EF00098D95DCE89E990E0FBCF8FE890E0F8CFFC
:100F000085E890E0F5CF8BE790E0F2CF81E790E0C5
:100F1000EFCF87E690E0ECCF8F929F92AF92BF9297
:100F2000CF92DF92EF92FF92CF93DF93EC01688133
:100F300079818A819B81611571058105910521F473
:100F400064E279ED8BE597E02DE133EF41E050E08D
:100F50009ED049015A0127EA31E440E050E07ED0BA
:100F60006B017C012CEE34EF4FEF5FEFC501B40154
:100F700075D0C60ED71EE81EF91EF7FE06C081E02A
:100F8000C81AD108E10880E8F80AC882D982EA8242
:100F9000FB82C701B6019F77DF91CF91FF90EF9061
:100FA000DF90CF90BF90AF909F908F9008958F92D9
:100FB0009F92AF92BF92CF92DF92EF92FF92609199
:100FC000A4007091A5008091A6009091A7006115E2
:100FD00071058105910521F464E279ED8BE597E0D7
:100FE0002DE133EF41E050E052D049015A0127EAA8
:100FF00031E440E050E032D06B017C012CEE34EF64
:101000004FEF5FEFC501B40129D0C60ED71EE81E11
:10101000F91EF7FE06C081E0C81AD108E10880E891
:10102000F80AC092A400D092A500E092A600F09227
:10103000A700C701B6019F77FF90EF90DF90CF9098
:10104000BF90AF909F908F9008956093A40070938D
:10105000A5008093A6009093A7000895EE27FF2790
:10106000AA27BB2708C0A20FB31FE41FF51F220F3A
:10107000331F441F551F969587957795679598F36D
:101080007040A9F7009799F7BD01CF010895052E8B
:1010900097FB16F400940FD057FD05D014D007FC31
:1010A00002D046F408C050954095309521953F4FA9
:1010B0004F4F5F4F089590958095709561957F4F44
:1010C0008F4F9F4F0895A1E21A2EAA1BBB1BFD0153
:1010D0000DC0AA1FBB1FEE1FFF1FA217B307E40717
:1010E000F50720F0A21BB30BE40BF50B661F771F6F
:1010F000881F991F1A9469F760957095809590954F
:101100009B01AC01BD01CF0108955058BB27AA2710
:101110000ED075C166D130F06BD120F031F49F3F15
:1011200011F41EF45BC10EF4E095E7FB51C1E92F09
:1011300077D180F3BA17620773078407950718F011
:1011400071F49EF58FC10EF4E0950B2EBA2FA02DF1
:101150000B01B90190010C01CA01A0011124FF2764
:10116000591B99F0593F50F4503E68F11A16F0405F
:10117000A22F232F342F4427585FF3CF469537955E
:101180002795A795F0405395C9F77EF41F16BA0B23
:10119000620B730B840BBAF09150A1F0FF0FBB1FD1
:1011A000661F771F881FC2F70EC0BA0F621F731F1A
:1011B000841F48F4879577956795B795F7959E3F77
:1011C00008F0B3CF9395880F08F09927EE0F979505
:1011D00087950895D9D008F481E008950CD00FC107
:1011E00007D140F0FED030F021F45F3F19F0F0C09D
:1011F000511139C1F3C014D198F39923C9F3552380
:10120000B1F3951B550BBB27AA27621773078407F9
:1012100038F09F5F5F4F220F331F441FAA1FA9F3AF
:1012200033D00E2E3AF0E0E830D091505040E695A1
:10123000001CCAF729D0FE2F27D0660F771F881F02
:10124000BB1F261737074807AB07B0E809F0BB0BF1
:10125000802DBF01FF2793585F4F2AF09E3F510515
:1012600068F0B6C000C15F3FECF3983EDCF38695B2
:1012700077956795B795F7959F5FC9F7880F911D8B
:101280009695879597F90895E1E0660F771F881F77
:10129000BB1F621773078407BA0720F0621B730B2A
:1012A000840BBA0BEE1F88F7E095089504D068947C
:1012B000B111D9C00895BCD088F09F5790F0B92FD4
:1012C0009927B751A0F0D1F0660F771F881F991F9B
:1012D0001AF0BA95C9F712C0B13081F0C3D0B1E0AD
:1012E0000895C0C0672F782F8827B85F39F0B93FBD
:1012F000CCF3869577956795B395D9F73EF490959D
:101300008095709561957F4F8F4F9F4F0895E8941A
:1013100009C097FB3EF490958095709561957F4F3D
:101320008F4F9F4F9923A9F0F92F96E9BB279395EB
:10133000F695879577956795B795F111F8CFFAF4FB
:10134000BB0F11F460FF1BC06F5F7F4F8F4F9F4F2C
:1013500016C0882311F096E911C0772321F09EE88A
:10136000872F762F05C0662371F096E8862F70E0F0
:1013700060E02AF09A95660F771F881FDAF7880FCA
:101380009695879597F90895990F0008550FAA0B20
:10139000E0E8FEEF16161706E807F907C0F0121688
:1013A0001306E407F50798F0621B730B840B950B8B
:1013B00039F40A2661F0232B242B252B21F40895E0
:1013C0000A2609F4A140A6958FEF811D811D08957D
:1013D00097F99F6780E870E060E008959FEF80ECE8
:1013E000089500240A94161617061806090608958B
:1013F00000240A9412161306140605060895092EF1
:101400000394000C11F4882352F0BB0F40F4BF2B5F
:1014100011F460FF04C06F5F7F4F8F4F9F4F08959F
:1014200057FD9058440F551F59F05F3F71F0479595
:10143000880F97FB991F61F09F3F79F0879508957A
:10144000121613061406551FF2CF4695F1DF08C099
:10145000161617061806991FF1CF869571056105B6
:1014600008940895E894BB2766277727CB0197F95E
:1014700008950AD0C4CFB5DF28F0BADF18F095235D
:1014800009F0A6CFABCFEFCFCBDFA8F39923D9F3E9
:101490005523C9F3950F50E0551FAA27EE27FF27C4
:1014A000BB2700240894679520F4E20FF31FB41FB4
:1014B0000A1E220F331F441FAA1F6695A9F77795AE
:1014C00030F4F30FB41F0A1E121E08F46395330F95
:1014D000441FAA1F221F769599F7879520F4B40F11
:1014E0000A1E121E631F440FAA1F221F331F869558
:1014F000A9F7862F712D602D11249F5750408AF037
:10150000E1F088234AF0EE0FFF1FBB1F661F771F15
:10151000881F91505040A9F79E3F510570F058CF59
:10152000A2CF5F3FECF3983EDCF386957795679505
:10153000B795F795E7959F5FC1F7FE2B880F911D33
:101540009695879597F90895002480FD060E660FFD
:0E15500011F08695D1F7802D0895F894FFCF05
:10155E00FFFFFFFFFFFF0550051C7032000FFF005D
:10156E00964204C0B60000280000FF430394C70053
:10157E000F3C0064824702726700230000AA0059E4
:10158E00011059321900F0460052003D5228000059
:08159E00FF0000010100000044
:00000001FF
